{
    "_format": "hh-sol-artifact-1",
    "contractName": "AuditBook",
    "sourceName": "contracts/AuditBook.sol",
    "abi": [
        {
            "inputs": [
                {
                    "internalType": "address",
                    "name": "chai_",
                    "type": "address"
                },
                {
                    "internalType": "uint256",
                    "name": "price_",
                    "type": "uint256"
                },
                {
                    "internalType": "string",
                    "name": "tokenUriJson_",
                    "type": "string"
                }
            ],
            "stateMutability": "nonpayable",
            "type": "constructor"
        },
        {
            "anonymous": false,
            "inputs": [
                {
                    "indexed": true,
                    "internalType": "address",
                    "name": "owner",
                    "type": "address"
                },
                {
                    "indexed": true,
                    "internalType": "address",
                    "name": "approved",
                    "type": "address"
                },
                {
                    "indexed": true,
                    "internalType": "uint256",
                    "name": "tokenId",
                    "type": "uint256"
                }
            ],
            "name": "Approval",
            "type": "event"
        },
        {
            "anonymous": false,
            "inputs": [
                {
                    "indexed": true,
                    "internalType": "address",
                    "name": "owner",
                    "type": "address"
                },
                {
                    "indexed": true,
                    "internalType": "address",
                    "name": "operator",
                    "type": "address"
                },
                {
                    "indexed": false,
                    "internalType": "bool",
                    "name": "approved",
                    "type": "bool"
                }
            ],
            "name": "ApprovalForAll",
            "type": "event"
        },
        {
            "anonymous": false,
            "inputs": [
                {
                    "indexed": true,
                    "internalType": "address",
                    "name": "previousOwner",
                    "type": "address"
                },
                {
                    "indexed": true,
                    "internalType": "address",
                    "name": "newOwner",
                    "type": "address"
                }
            ],
            "name": "OwnershipTransferred",
            "type": "event"
        },
        {
            "anonymous": false,
            "inputs": [
                {
                    "indexed": true,
                    "internalType": "address",
                    "name": "from",
                    "type": "address"
                },
                {
                    "indexed": true,
                    "internalType": "address",
                    "name": "to",
                    "type": "address"
                },
                {
                    "indexed": true,
                    "internalType": "uint256",
                    "name": "tokenId",
                    "type": "uint256"
                }
            ],
            "name": "Transfer",
            "type": "event"
        },
        {
            "inputs": [
                {
                    "internalType": "address",
                    "name": "to",
                    "type": "address"
                },
                {
                    "internalType": "uint256",
                    "name": "tokenId",
                    "type": "uint256"
                }
            ],
            "name": "approve",
            "outputs": [],
            "stateMutability": "nonpayable",
            "type": "function"
        },
        {
            "inputs": [
                {
                    "internalType": "address",
                    "name": "owner",
                    "type": "address"
                }
            ],
            "name": "balanceOf",
            "outputs": [
                {
                    "internalType": "uint256",
                    "name": "",
                    "type": "uint256"
                }
            ],
            "stateMutability": "view",
            "type": "function"
        },
        {
            "inputs": [],
            "name": "chai",
            "outputs": [
                {
                    "internalType": "address",
                    "name": "",
                    "type": "address"
                }
            ],
            "stateMutability": "view",
            "type": "function"
        },
        {
            "inputs": [
                {
                    "internalType": "uint256",
                    "name": "tokenId",
                    "type": "uint256"
                }
            ],
            "name": "getApproved",
            "outputs": [
                {
                    "internalType": "address",
                    "name": "",
                    "type": "address"
                }
            ],
            "stateMutability": "view",
            "type": "function"
        },
        {
            "inputs": [
                {
                    "internalType": "address",
                    "name": "owner",
                    "type": "address"
                },
                {
                    "internalType": "address",
                    "name": "operator",
                    "type": "address"
                }
            ],
            "name": "isApprovedForAll",
            "outputs": [
                {
                    "internalType": "bool",
                    "name": "",
                    "type": "bool"
                }
            ],
            "stateMutability": "view",
            "type": "function"
        },
        {
            "inputs": [],
            "name": "name",
            "outputs": [
                {
                    "internalType": "string",
                    "name": "",
                    "type": "string"
                }
            ],
            "stateMutability": "view",
            "type": "function"
        },
        {
            "inputs": [],
            "name": "owner",
            "outputs": [
                {
                    "internalType": "address",
                    "name": "",
                    "type": "address"
                }
            ],
            "stateMutability": "view",
            "type": "function"
        },
        {
            "inputs": [
                {
                    "internalType": "uint256",
                    "name": "tokenId",
                    "type": "uint256"
                }
            ],
            "name": "ownerOf",
            "outputs": [
                {
                    "internalType": "address",
                    "name": "",
                    "type": "address"
                }
            ],
            "stateMutability": "view",
            "type": "function"
        },
        {
            "inputs": [],
            "name": "price",
            "outputs": [
                {
                    "internalType": "uint256",
                    "name": "",
                    "type": "uint256"
                }
            ],
            "stateMutability": "view",
            "type": "function"
        },
        {
            "inputs": [],
            "name": "renounceOwnership",
            "outputs": [],
            "stateMutability": "nonpayable",
            "type": "function"
        },
        {
            "inputs": [
                {
                    "internalType": "address",
                    "name": "to",
                    "type": "address"
                }
            ],
            "name": "safeMint",
            "outputs": [],
            "stateMutability": "nonpayable",
            "type": "function"
        },
        {
            "inputs": [
                {
                    "internalType": "address",
                    "name": "from",
                    "type": "address"
                },
                {
                    "internalType": "address",
                    "name": "to",
                    "type": "address"
                },
                {
                    "internalType": "uint256",
                    "name": "tokenId",
                    "type": "uint256"
                }
            ],
            "name": "safeTransferFrom",
            "outputs": [],
            "stateMutability": "nonpayable",
            "type": "function"
        },
        {
            "inputs": [
                {
                    "internalType": "address",
                    "name": "from",
                    "type": "address"
                },
                {
                    "internalType": "address",
                    "name": "to",
                    "type": "address"
                },
                {
                    "internalType": "uint256",
                    "name": "tokenId",
                    "type": "uint256"
                },
                {
                    "internalType": "bytes",
                    "name": "data",
                    "type": "bytes"
                }
            ],
            "name": "safeTransferFrom",
            "outputs": [],
            "stateMutability": "nonpayable",
            "type": "function"
        },
        {
            "inputs": [
                {
                    "internalType": "address",
                    "name": "operator",
                    "type": "address"
                },
                {
                    "internalType": "bool",
                    "name": "approved",
                    "type": "bool"
                }
            ],
            "name": "setApprovalForAll",
            "outputs": [],
            "stateMutability": "nonpayable",
            "type": "function"
        },
        {
            "inputs": [
                {
                    "internalType": "uint256",
                    "name": "price_",
                    "type": "uint256"
                }
            ],
            "name": "setPrice",
            "outputs": [],
            "stateMutability": "nonpayable",
            "type": "function"
        },
        {
            "inputs": [
                {
                    "internalType": "string",
                    "name": "tokenUriJson_",
                    "type": "string"
                }
            ],
            "name": "setTokenURI",
            "outputs": [],
            "stateMutability": "nonpayable",
            "type": "function"
        },
        {
            "inputs": [
                {
                    "internalType": "bytes4",
                    "name": "interfaceId",
                    "type": "bytes4"
                }
            ],
            "name": "supportsInterface",
            "outputs": [
                {
                    "internalType": "bool",
                    "name": "",
                    "type": "bool"
                }
            ],
            "stateMutability": "view",
            "type": "function"
        },
        {
            "inputs": [],
            "name": "symbol",
            "outputs": [
                {
                    "internalType": "string",
                    "name": "",
                    "type": "string"
                }
            ],
            "stateMutability": "view",
            "type": "function"
        },
        {
            "inputs": [
                {
                    "internalType": "uint256",
                    "name": "tokenId",
                    "type": "uint256"
                }
            ],
            "name": "tokenURI",
            "outputs": [
                {
                    "internalType": "string",
                    "name": "",
                    "type": "string"
                }
            ],
            "stateMutability": "view",
            "type": "function"
        },
        {
            "inputs": [],
            "name": "tokenUriJson",
            "outputs": [
                {
                    "internalType": "string",
                    "name": "",
                    "type": "string"
                }
            ],
            "stateMutability": "view",
            "type": "function"
        },
        {
            "inputs": [
                {
                    "internalType": "address",
                    "name": "from",
                    "type": "address"
                },
                {
                    "internalType": "address",
                    "name": "to",
                    "type": "address"
                },
                {
                    "internalType": "uint256",
                    "name": "tokenId",
                    "type": "uint256"
                }
            ],
            "name": "transferFrom",
            "outputs": [],
            "stateMutability": "nonpayable",
            "type": "function"
        },
        {
            "inputs": [
                {
                    "internalType": "address",
                    "name": "newOwner",
                    "type": "address"
                }
            ],
            "name": "transferOwnership",
            "outputs": [],
            "stateMutability": "nonpayable",
            "type": "function"
        },
        {
            "inputs": [],
            "name": "withdraw",
            "outputs": [],
            "stateMutability": "nonpayable",
            "type": "function"
        }
    ],
    "bytecode": "0x60806040523480156200001157600080fd5b5060405162003cd138038062003cd183398181016040528101906200003791906200044d565b6040518060400160405280600981526020017f4175646974426f6f6b00000000000000000000000000000000000000000000008152506040518060400160405280600281526020017f41420000000000000000000000000000000000000000000000000000000000008152508160009081620000b4919062000709565b508060019081620000c6919062000709565b505050620000e9620000dd6200014c60201b60201c565b6200015460201b60201c565b82600860006101000a81548173ffffffffffffffffffffffffffffffffffffffff021916908373ffffffffffffffffffffffffffffffffffffffff1602179055508160098190555080600a908162000142919062000709565b50505050620007f0565b600033905090565b6000600660009054906101000a900473ffffffffffffffffffffffffffffffffffffffff16905081600660006101000a81548173ffffffffffffffffffffffffffffffffffffffff021916908373ffffffffffffffffffffffffffffffffffffffff1602179055508173ffffffffffffffffffffffffffffffffffffffff168173ffffffffffffffffffffffffffffffffffffffff167f8be0079c531659141344cd1fd0a4f28419497f9722a3daafe3b4186f6b6457e060405160405180910390a35050565b6000604051905090565b600080fd5b600080fd5b600073ffffffffffffffffffffffffffffffffffffffff82169050919050565b60006200025b826200022e565b9050919050565b6200026d816200024e565b81146200027957600080fd5b50565b6000815190506200028d8162000262565b92915050565b6000819050919050565b620002a88162000293565b8114620002b457600080fd5b50565b600081519050620002c8816200029d565b92915050565b600080fd5b600080fd5b6000601f19601f8301169050919050565b7f4e487b7100000000000000000000000000000000000000000000000000000000600052604160045260246000fd5b6200032382620002d8565b810181811067ffffffffffffffff82111715620003455762000344620002e9565b5b80604052505050565b60006200035a6200021a565b905062000368828262000318565b919050565b600067ffffffffffffffff8211156200038b576200038a620002e9565b5b6200039682620002d8565b9050602081019050919050565b60005b83811015620003c3578082015181840152602081019050620003a6565b60008484015250505050565b6000620003e6620003e0846200036d565b6200034e565b905082815260208101848484011115620004055762000404620002d3565b5b62000412848285620003a3565b509392505050565b600082601f830112620004325762000431620002ce565b5b815162000444848260208601620003cf565b91505092915050565b60008060006060848603121562000469576200046862000224565b5b600062000479868287016200027c565b93505060206200048c86828701620002b7565b925050604084015167ffffffffffffffff811115620004b057620004af62000229565b5b620004be868287016200041a565b9150509250925092565b600081519050919050565b7f4e487b7100000000000000000000000000000000000000000000000000000000600052602260045260246000fd5b600060028204905060018216806200051b57607f821691505b602082108103620005315762000530620004d3565b5b50919050565b60008190508160005260206000209050919050565b60006020601f8301049050919050565b600082821b905092915050565b6000600883026200059b7fffffffffffffffffffffffffffffffffffffffffffffffffffffffffffffffff826200055c565b620005a786836200055c565b95508019841693508086168417925050509392505050565b6000819050919050565b6000620005ea620005e4620005de8462000293565b620005bf565b62000293565b9050919050565b6000819050919050565b6200060683620005c9565b6200061e6200061582620005f1565b84845462000569565b825550505050565b600090565b6200063562000626565b62000642818484620005fb565b505050565b5b818110156200066a576200065e6000826200062b565b60018101905062000648565b5050565b601f821115620006b957620006838162000537565b6200068e846200054c565b810160208510156200069e578190505b620006b6620006ad856200054c565b83018262000647565b50505b505050565b600082821c905092915050565b6000620006de60001984600802620006be565b1980831691505092915050565b6000620006f98383620006cb565b9150826002028217905092915050565b6200071482620004c8565b67ffffffffffffffff81111562000730576200072f620002e9565b5b6200073c825462000502565b620007498282856200066e565b600060209050601f8311600181146200078157600084156200076c578287015190505b620007788582620006eb565b865550620007e8565b601f198416620007918662000537565b60005b82811015620007bb5784890151825560018201915060208501945060208101905062000794565b86831015620007db5784890151620007d7601f891682620006cb565b8355505b6001600288020188555050505b505050505050565b6134d180620008006000396000f3fe608060405234801561001057600080fd5b506004361061014d5760003560e01c8063715018a6116100c3578063b69d04561161007c578063b69d045614610364578063b88d4fde14610382578063c87b56dd1461039e578063e0df5b6f146103ce578063e985e9c5146103ea578063f2fde38b1461041a5761014d565b8063715018a6146102c85780638da5cb5b146102d257806391b7f5ed146102f057806395d89b411461030c578063a035b1fe1461032a578063a22cb465146103485761014d565b80633ccfd60b116101155780633ccfd60b1461020857806340d097c31461021257806342842e0e1461022e5780635b0ff9201461024a5780636352211e1461026857806370a08231146102985761014d565b806301ffc9a71461015257806306fdde0314610182578063081812fc146101a0578063095ea7b3146101d057806323b872dd146101ec575b600080fd5b61016c60048036038101906101679190612060565b610436565b60405161017991906120a8565b60405180910390f35b61018a610518565b6040516101979190612153565b60405180910390f35b6101ba60048036038101906101b591906121ab565b6105aa565b6040516101c79190612219565b60405180910390f35b6101ea60048036038101906101e59190612260565b6105f0565b005b610206600480360381019061020191906122a0565b610707565b005b610210610767565b005b61022c600480360381019061022791906122f3565b610859565b005b610248600480360381019061024391906122a0565b61091c565b005b61025261093c565b60405161025f9190612153565b60405180910390f35b610282600480360381019061027d91906121ab565b6109ca565b60405161028f9190612219565b60405180910390f35b6102b260048036038101906102ad91906122f3565b610a50565b6040516102bf919061232f565b60405180910390f35b6102d0610b07565b005b6102da610b1b565b6040516102e79190612219565b60405180910390f35b61030a600480360381019061030591906121ab565b610b45565b005b610314610b57565b6040516103219190612153565b60405180910390f35b610332610be9565b60405161033f919061232f565b60405180910390f35b610362600480360381019061035d9190612376565b610bef565b005b61036c610c05565b6040516103799190612219565b60405180910390f35b61039c600480360381019061039791906124eb565b610c2b565b005b6103b860048036038101906103b391906121ab565b610c8d565b6040516103c59190612153565b60405180910390f35b6103e860048036038101906103e391906125ce565b610d21565b005b61040460048036038101906103ff919061261b565b610d3f565b60405161041191906120a8565b60405180910390f35b610434600480360381019061042f91906122f3565b610dd3565b005b60007f80ac58cd000000000000000000000000000000000000000000000000000000007bffffffffffffffffffffffffffffffffffffffffffffffffffffffff1916827bffffffffffffffffffffffffffffffffffffffffffffffffffffffff1916148061050157507f5b5e139f000000000000000000000000000000000000000000000000000000007bffffffffffffffffffffffffffffffffffffffffffffffffffffffff1916827bffffffffffffffffffffffffffffffffffffffffffffffffffffffff1916145b80610511575061051082610e56565b5b9050919050565b6060600080546105279061268a565b80601f01602080910402602001604051908101604052809291908181526020018280546105539061268a565b80156105a05780601f10610575576101008083540402835291602001916105a0565b820191906000526020600020905b81548152906001019060200180831161058357829003601f168201915b5050505050905090565b60006105b582610ec0565b6004600083815260200190815260200160002060009054906101000a900473ffffffffffffffffffffffffffffffffffffffff169050919050565b60006105fb826109ca565b90508073ffffffffffffffffffffffffffffffffffffffff168373ffffffffffffffffffffffffffffffffffffffff160361066b576040517f08c379a00000000000000000000000000000000000000000000000000000000081526004016106629061272d565b60405180910390fd5b8073ffffffffffffffffffffffffffffffffffffffff1661068a610f0b565b73ffffffffffffffffffffffffffffffffffffffff1614806106b957506106b8816106b3610f0b565b610d3f565b5b6106f8576040517f08c379a00000000000000000000000000000000000000000000000000000000081526004016106ef906127bf565b60405180910390fd5b6107028383610f13565b505050565b610718610712610f0b565b82610fcc565b610757576040517f08c379a000000000000000000000000000000000000000000000000000000000815260040161074e90612851565b60405180910390fd5b610762838383611061565b505050565b61076f61135a565b61085733600860009054906101000a900473ffffffffffffffffffffffffffffffffffffffff1673ffffffffffffffffffffffffffffffffffffffff166370a08231306040518263ffffffff1660e01b81526004016107ce9190612219565b602060405180830381865afa1580156107eb573d6000803e3d6000fd5b505050506040513d601f19601f8201168201806040525081019061080f9190612886565b600860009054906101000a900473ffffffffffffffffffffffffffffffffffffffff1673ffffffffffffffffffffffffffffffffffffffff166113d89092919063ffffffff16565b565b600061086482610a50565b11156108a5576040517f08c379a000000000000000000000000000000000000000000000000000000000815260040161089c906128ff565b60405180910390fd5b60006108b1600761145e565b90506108bd600761146c565b6108c78282611482565b6109183330600954600860009054906101000a900473ffffffffffffffffffffffffffffffffffffffff1673ffffffffffffffffffffffffffffffffffffffff166114a0909392919063ffffffff16565b5050565b61093783838360405180602001604052806000815250610c2b565b505050565b600a80546109499061268a565b80601f01602080910402602001604051908101604052809291908181526020018280546109759061268a565b80156109c25780601f10610997576101008083540402835291602001916109c2565b820191906000526020600020905b8154815290600101906020018083116109a557829003601f168201915b505050505081565b6000806109d683611529565b9050600073ffffffffffffffffffffffffffffffffffffffff168173ffffffffffffffffffffffffffffffffffffffff1603610a47576040517f08c379a0000000000000000000000000000000000000000000000000000000008152600401610a3e9061296b565b60405180910390fd5b80915050919050565b60008073ffffffffffffffffffffffffffffffffffffffff168273ffffffffffffffffffffffffffffffffffffffff1603610ac0576040517f08c379a0000000000000000000000000000000000000000000000000000000008152600401610ab7906129fd565b60405180910390fd5b600360008373ffffffffffffffffffffffffffffffffffffffff1673ffffffffffffffffffffffffffffffffffffffff168152602001908152602001600020549050919050565b610b0f61135a565b610b196000611566565b565b6000600660009054906101000a900473ffffffffffffffffffffffffffffffffffffffff16905090565b610b4d61135a565b8060098190555050565b606060018054610b669061268a565b80601f0160208091040260200160405190810160405280929190818152602001828054610b929061268a565b8015610bdf5780601f10610bb457610100808354040283529160200191610bdf565b820191906000526020600020905b815481529060010190602001808311610bc257829003601f168201915b5050505050905090565b60095481565b610c01610bfa610f0b565b838361162c565b5050565b600860009054906101000a900473ffffffffffffffffffffffffffffffffffffffff1681565b610c3c610c36610f0b565b83610fcc565b610c7b576040517f08c379a0000000000000000000000000000000000000000000000000000000008152600401610c7290612851565b60405180910390fd5b610c8784848484611798565b50505050565b6060600a8054610c9c9061268a565b80601f0160208091040260200160405190810160405280929190818152602001828054610cc89061268a565b8015610d155780601f10610cea57610100808354040283529160200191610d15565b820191906000526020600020905b815481529060010190602001808311610cf857829003601f168201915b50505050509050919050565b610d2961135a565b8181600a9182610d3a929190612bd4565b505050565b6000600560008473ffffffffffffffffffffffffffffffffffffffff1673ffffffffffffffffffffffffffffffffffffffff16815260200190815260200160002060008373ffffffffffffffffffffffffffffffffffffffff1673ffffffffffffffffffffffffffffffffffffffff16815260200190815260200160002060009054906101000a900460ff16905092915050565b610ddb61135a565b600073ffffffffffffffffffffffffffffffffffffffff168173ffffffffffffffffffffffffffffffffffffffff1603610e4a576040517f08c379a0000000000000000000000000000000000000000000000000000000008152600401610e4190612d16565b60405180910390fd5b610e5381611566565b50565b60007f01ffc9a7000000000000000000000000000000000000000000000000000000007bffffffffffffffffffffffffffffffffffffffffffffffffffffffff1916827bffffffffffffffffffffffffffffffffffffffffffffffffffffffff1916149050919050565b610ec9816117f4565b610f08576040517f08c379a0000000000000000000000000000000000000000000000000000000008152600401610eff9061296b565b60405180910390fd5b50565b600033905090565b816004600083815260200190815260200160002060006101000a81548173ffffffffffffffffffffffffffffffffffffffff021916908373ffffffffffffffffffffffffffffffffffffffff160217905550808273ffffffffffffffffffffffffffffffffffffffff16610f86836109ca565b73ffffffffffffffffffffffffffffffffffffffff167f8c5be1e5ebec7d5bd14f71427d1e84f3dd0314c0f7b2291e5b200ac8c7c3b92560405160405180910390a45050565b600080610fd8836109ca565b90508073ffffffffffffffffffffffffffffffffffffffff168473ffffffffffffffffffffffffffffffffffffffff16148061101a57506110198185610d3f565b5b8061105857508373ffffffffffffffffffffffffffffffffffffffff16611040846105aa565b73ffffffffffffffffffffffffffffffffffffffff16145b91505092915050565b8273ffffffffffffffffffffffffffffffffffffffff16611081826109ca565b73ffffffffffffffffffffffffffffffffffffffff16146110d7576040517f08c379a00000000000000000000000000000000000000000000000000000000081526004016110ce90612da8565b60405180910390fd5b600073ffffffffffffffffffffffffffffffffffffffff168273ffffffffffffffffffffffffffffffffffffffff1603611146576040517f08c379a000000000000000000000000000000000000000000000000000000000815260040161113d90612e3a565b60405180910390fd5b6111538383836001611835565b8273ffffffffffffffffffffffffffffffffffffffff16611173826109ca565b73ffffffffffffffffffffffffffffffffffffffff16146111c9576040517f08c379a00000000000000000000000000000000000000000000000000000000081526004016111c090612da8565b60405180910390fd5b6004600082815260200190815260200160002060006101000a81549073ffffffffffffffffffffffffffffffffffffffff02191690556001600360008573ffffffffffffffffffffffffffffffffffffffff1673ffffffffffffffffffffffffffffffffffffffff168152602001908152602001600020600082825403925050819055506001600360008473ffffffffffffffffffffffffffffffffffffffff1673ffffffffffffffffffffffffffffffffffffffff16815260200190815260200160002060008282540192505081905550816002600083815260200190815260200160002060006101000a81548173ffffffffffffffffffffffffffffffffffffffff021916908373ffffffffffffffffffffffffffffffffffffffff160217905550808273ffffffffffffffffffffffffffffffffffffffff168473ffffffffffffffffffffffffffffffffffffffff167fddf252ad1be2c89b69c2b068fc378daa952ba7f163c4a11628f55a4df523b3ef60405160405180910390a4611355838383600161195b565b505050565b611362610f0b565b73ffffffffffffffffffffffffffffffffffffffff16611380610b1b565b73ffffffffffffffffffffffffffffffffffffffff16146113d6576040517f08c379a00000000000000000000000000000000000000000000000000000000081526004016113cd90612ea6565b60405180910390fd5b565b6114598363a9059cbb60e01b84846040516024016113f7929190612ec6565b604051602081830303815290604052907bffffffffffffffffffffffffffffffffffffffffffffffffffffffff19166020820180517bffffffffffffffffffffffffffffffffffffffffffffffffffffffff8381831617835250505050611961565b505050565b600081600001549050919050565b6001816000016000828254019250508190555050565b61149c828260405180602001604052806000815250611a28565b5050565b611523846323b872dd60e01b8585856040516024016114c193929190612eef565b604051602081830303815290604052907bffffffffffffffffffffffffffffffffffffffffffffffffffffffff19166020820180517bffffffffffffffffffffffffffffffffffffffffffffffffffffffff8381831617835250505050611961565b50505050565b60006002600083815260200190815260200160002060009054906101000a900473ffffffffffffffffffffffffffffffffffffffff169050919050565b6000600660009054906101000a900473ffffffffffffffffffffffffffffffffffffffff16905081600660006101000a81548173ffffffffffffffffffffffffffffffffffffffff021916908373ffffffffffffffffffffffffffffffffffffffff1602179055508173ffffffffffffffffffffffffffffffffffffffff168173ffffffffffffffffffffffffffffffffffffffff167f8be0079c531659141344cd1fd0a4f28419497f9722a3daafe3b4186f6b6457e060405160405180910390a35050565b8173ffffffffffffffffffffffffffffffffffffffff168373ffffffffffffffffffffffffffffffffffffffff160361169a576040517f08c379a000000000000000000000000000000000000000000000000000000000815260040161169190612f72565b60405180910390fd5b80600560008573ffffffffffffffffffffffffffffffffffffffff1673ffffffffffffffffffffffffffffffffffffffff16815260200190815260200160002060008473ffffffffffffffffffffffffffffffffffffffff1673ffffffffffffffffffffffffffffffffffffffff16815260200190815260200160002060006101000a81548160ff0219169083151502179055508173ffffffffffffffffffffffffffffffffffffffff168373ffffffffffffffffffffffffffffffffffffffff167f17307eab39ab6107e8899845ad3d59bd9653f200f220920489ca2b5937696c318360405161178b91906120a8565b60405180910390a3505050565b6117a3848484611061565b6117af84848484611a83565b6117ee576040517f08c379a00000000000000000000000000000000000000000000000000000000081526004016117e590613004565b60405180910390fd5b50505050565b60008073ffffffffffffffffffffffffffffffffffffffff1661181683611529565b73ffffffffffffffffffffffffffffffffffffffff1614159050919050565b600181111561195557600073ffffffffffffffffffffffffffffffffffffffff168473ffffffffffffffffffffffffffffffffffffffff16146118c95780600360008673ffffffffffffffffffffffffffffffffffffffff1673ffffffffffffffffffffffffffffffffffffffff16815260200190815260200160002060008282546118c19190613053565b925050819055505b600073ffffffffffffffffffffffffffffffffffffffff168373ffffffffffffffffffffffffffffffffffffffff16146119545780600360008573ffffffffffffffffffffffffffffffffffffffff1673ffffffffffffffffffffffffffffffffffffffff168152602001908152602001600020600082825461194c9190613087565b925050819055505b5b50505050565b50505050565b60006119c3826040518060400160405280602081526020017f5361666545524332303a206c6f772d6c6576656c2063616c6c206661696c65648152508573ffffffffffffffffffffffffffffffffffffffff16611c0a9092919063ffffffff16565b9050600081511115611a2357808060200190518101906119e391906130d0565b611a22576040517f08c379a0000000000000000000000000000000000000000000000000000000008152600401611a199061316f565b60405180910390fd5b5b505050565b611a328383611c22565b611a3f6000848484611a83565b611a7e576040517f08c379a0000000000000000000000000000000000000000000000000000000008152600401611a7590613004565b60405180910390fd5b505050565b6000611aa48473ffffffffffffffffffffffffffffffffffffffff16611e3f565b15611bfd578373ffffffffffffffffffffffffffffffffffffffff1663150b7a02611acd610f0b565b8786866040518563ffffffff1660e01b8152600401611aef94939291906131e4565b6020604051808303816000875af1925050508015611b2b57506040513d601f19601f82011682018060405250810190611b289190613245565b60015b611bad573d8060008114611b5b576040519150601f19603f3d011682016040523d82523d6000602084013e611b60565b606091505b506000815103611ba5576040517f08c379a0000000000000000000000000000000000000000000000000000000008152600401611b9c90613004565b60405180910390fd5b805181602001fd5b63150b7a0260e01b7bffffffffffffffffffffffffffffffffffffffffffffffffffffffff1916817bffffffffffffffffffffffffffffffffffffffffffffffffffffffff191614915050611c02565b600190505b949350505050565b6060611c198484600085611e62565b90509392505050565b600073ffffffffffffffffffffffffffffffffffffffff168273ffffffffffffffffffffffffffffffffffffffff1603611c91576040517f08c379a0000000000000000000000000000000000000000000000000000000008152600401611c88906132be565b60405180910390fd5b611c9a816117f4565b15611cda576040517f08c379a0000000000000000000000000000000000000000000000000000000008152600401611cd19061332a565b60405180910390fd5b611ce8600083836001611835565b611cf1816117f4565b15611d31576040517f08c379a0000000000000000000000000000000000000000000000000000000008152600401611d289061332a565b60405180910390fd5b6001600360008473ffffffffffffffffffffffffffffffffffffffff1673ffffffffffffffffffffffffffffffffffffffff16815260200190815260200160002060008282540192505081905550816002600083815260200190815260200160002060006101000a81548173ffffffffffffffffffffffffffffffffffffffff021916908373ffffffffffffffffffffffffffffffffffffffff160217905550808273ffffffffffffffffffffffffffffffffffffffff16600073ffffffffffffffffffffffffffffffffffffffff167fddf252ad1be2c89b69c2b068fc378daa952ba7f163c4a11628f55a4df523b3ef60405160405180910390a4611e3b60008383600161195b565b5050565b6000808273ffffffffffffffffffffffffffffffffffffffff163b119050919050565b606082471015611ea7576040517f08c379a0000000000000000000000000000000000000000000000000000000008152600401611e9e906133bc565b60405180910390fd5b6000808673ffffffffffffffffffffffffffffffffffffffff168587604051611ed09190613418565b60006040518083038185875af1925050503d8060008114611f0d576040519150601f19603f3d011682016040523d82523d6000602084013e611f12565b606091505b5091509150611f2387838387611f2f565b92505050949350505050565b60608315611f91576000835103611f8957611f4985611e3f565b611f88576040517f08c379a0000000000000000000000000000000000000000000000000000000008152600401611f7f9061347b565b60405180910390fd5b5b829050611f9c565b611f9b8383611fa4565b5b949350505050565b600082511115611fb75781518083602001fd5b806040517f08c379a0000000000000000000000000000000000000000000000000000000008152600401611feb9190612153565b60405180910390fd5b6000604051905090565b600080fd5b600080fd5b60007fffffffff0000000000000000000000000000000000000000000000000000000082169050919050565b61203d81612008565b811461204857600080fd5b50565b60008135905061205a81612034565b92915050565b60006020828403121561207657612075611ffe565b5b60006120848482850161204b565b91505092915050565b60008115159050919050565b6120a28161208d565b82525050565b60006020820190506120bd6000830184612099565b92915050565b600081519050919050565b600082825260208201905092915050565b60005b838110156120fd5780820151818401526020810190506120e2565b60008484015250505050565b6000601f19601f8301169050919050565b6000612125826120c3565b61212f81856120ce565b935061213f8185602086016120df565b61214881612109565b840191505092915050565b6000602082019050818103600083015261216d818461211a565b905092915050565b6000819050919050565b61218881612175565b811461219357600080fd5b50565b6000813590506121a58161217f565b92915050565b6000602082840312156121c1576121c0611ffe565b5b60006121cf84828501612196565b91505092915050565b600073ffffffffffffffffffffffffffffffffffffffff82169050919050565b6000612203826121d8565b9050919050565b612213816121f8565b82525050565b600060208201905061222e600083018461220a565b92915050565b61223d816121f8565b811461224857600080fd5b50565b60008135905061225a81612234565b92915050565b6000806040838503121561227757612276611ffe565b5b60006122858582860161224b565b925050602061229685828601612196565b9150509250929050565b6000806000606084860312156122b9576122b8611ffe565b5b60006122c78682870161224b565b93505060206122d88682870161224b565b92505060406122e986828701612196565b9150509250925092565b60006020828403121561230957612308611ffe565b5b60006123178482850161224b565b91505092915050565b61232981612175565b82525050565b60006020820190506123446000830184612320565b92915050565b6123538161208d565b811461235e57600080fd5b50565b6000813590506123708161234a565b92915050565b6000806040838503121561238d5761238c611ffe565b5b600061239b8582860161224b565b92505060206123ac85828601612361565b9150509250929050565b600080fd5b600080fd5b7f4e487b7100000000000000000000000000000000000000000000000000000000600052604160045260246000fd5b6123f882612109565b810181811067ffffffffffffffff82111715612417576124166123c0565b5b80604052505050565b600061242a611ff4565b905061243682826123ef565b919050565b600067ffffffffffffffff821115612456576124556123c0565b5b61245f82612109565b9050602081019050919050565b82818337600083830152505050565b600061248e6124898461243b565b612420565b9050828152602081018484840111156124aa576124a96123bb565b5b6124b584828561246c565b509392505050565b600082601f8301126124d2576124d16123b6565b5b81356124e284826020860161247b565b91505092915050565b6000806000806080858703121561250557612504611ffe565b5b60006125138782880161224b565b94505060206125248782880161224b565b935050604061253587828801612196565b925050606085013567ffffffffffffffff81111561255657612555612003565b5b612562878288016124bd565b91505092959194509250565b600080fd5b600080fd5b60008083601f84011261258e5761258d6123b6565b5b8235905067ffffffffffffffff8111156125ab576125aa61256e565b5b6020830191508360018202830111156125c7576125c6612573565b5b9250929050565b600080602083850312156125e5576125e4611ffe565b5b600083013567ffffffffffffffff81111561260357612602612003565b5b61260f85828601612578565b92509250509250929050565b6000806040838503121561263257612631611ffe565b5b60006126408582860161224b565b92505060206126518582860161224b565b9150509250929050565b7f4e487b7100000000000000000000000000000000000000000000000000000000600052602260045260246000fd5b600060028204905060018216806126a257607f821691505b6020821081036126b5576126b461265b565b5b50919050565b7f4552433732313a20617070726f76616c20746f2063757272656e74206f776e6560008201527f7200000000000000000000000000000000000000000000000000000000000000602082015250565b60006127176021836120ce565b9150612722826126bb565b604082019050919050565b600060208201905081810360008301526127468161270a565b9050919050565b7f4552433732313a20617070726f76652063616c6c6572206973206e6f7420746f60008201527f6b656e206f776e6572206f7220617070726f76656420666f7220616c6c000000602082015250565b60006127a9603d836120ce565b91506127b48261274d565b604082019050919050565b600060208201905081810360008301526127d88161279c565b9050919050565b7f4552433732313a2063616c6c6572206973206e6f7420746f6b656e206f776e6560008201527f72206f7220617070726f76656400000000000000000000000000000000000000602082015250565b600061283b602d836120ce565b9150612846826127df565b604082019050919050565b6000602082019050818103600083015261286a8161282e565b9050919050565b6000815190506128808161217f565b92915050565b60006020828403121561289c5761289b611ffe565b5b60006128aa84828501612871565b91505092915050565b7f416c72656164792068617320616e204175646974426f6f6b0000000000000000600082015250565b60006128e96018836120ce565b91506128f4826128b3565b602082019050919050565b60006020820190508181036000830152612918816128dc565b9050919050565b7f4552433732313a20696e76616c696420746f6b656e2049440000000000000000600082015250565b60006129556018836120ce565b91506129608261291f565b602082019050919050565b6000602082019050818103600083015261298481612948565b9050919050565b7f4552433732313a2061646472657373207a65726f206973206e6f74206120766160008201527f6c6964206f776e65720000000000000000000000000000000000000000000000602082015250565b60006129e76029836120ce565b91506129f28261298b565b604082019050919050565b60006020820190508181036000830152612a16816129da565b9050919050565b600082905092915050565b60008190508160005260206000209050919050565b60006020601f8301049050919050565b600082821b905092915050565b600060088302612a8a7fffffffffffffffffffffffffffffffffffffffffffffffffffffffffffffffff82612a4d565b612a948683612a4d565b95508019841693508086168417925050509392505050565b6000819050919050565b6000612ad1612acc612ac784612175565b612aac565b612175565b9050919050565b6000819050919050565b612aeb83612ab6565b612aff612af782612ad8565b848454612a5a565b825550505050565b600090565b612b14612b07565b612b1f818484612ae2565b505050565b5b81811015612b4357612b38600082612b0c565b600181019050612b25565b5050565b601f821115612b8857612b5981612a28565b612b6284612a3d565b81016020851015612b71578190505b612b85612b7d85612a3d565b830182612b24565b50505b505050565b600082821c905092915050565b6000612bab60001984600802612b8d565b1980831691505092915050565b6000612bc48383612b9a565b9150826002028217905092915050565b612bde8383612a1d565b67ffffffffffffffff811115612bf757612bf66123c0565b5b612c01825461268a565b612c0c828285612b47565b6000601f831160018114612c3b5760008415612c29578287013590505b612c338582612bb8565b865550612c9b565b601f198416612c4986612a28565b60005b82811015612c7157848901358255600182019150602085019450602081019050612c4c565b86831015612c8e5784890135612c8a601f891682612b9a565b8355505b6001600288020188555050505b50505050505050565b7f4f776e61626c653a206e6577206f776e657220697320746865207a65726f206160008201527f6464726573730000000000000000000000000000000000000000000000000000602082015250565b6000612d006026836120ce565b9150612d0b82612ca4565b604082019050919050565b60006020820190508181036000830152612d2f81612cf3565b9050919050565b7f4552433732313a207472616e736665722066726f6d20696e636f72726563742060008201527f6f776e6572000000000000000000000000000000000000000000000000000000602082015250565b6000612d926025836120ce565b9150612d9d82612d36565b604082019050919050565b60006020820190508181036000830152612dc181612d85565b9050919050565b7f4552433732313a207472616e7366657220746f20746865207a65726f2061646460008201527f7265737300000000000000000000000000000000000000000000000000000000602082015250565b6000612e246024836120ce565b9150612e2f82612dc8565b604082019050919050565b60006020820190508181036000830152612e5381612e17565b9050919050565b7f4f776e61626c653a2063616c6c6572206973206e6f7420746865206f776e6572600082015250565b6000612e906020836120ce565b9150612e9b82612e5a565b602082019050919050565b60006020820190508181036000830152612ebf81612e83565b9050919050565b6000604082019050612edb600083018561220a565b612ee86020830184612320565b9392505050565b6000606082019050612f04600083018661220a565b612f11602083018561220a565b612f1e6040830184612320565b949350505050565b7f4552433732313a20617070726f766520746f2063616c6c657200000000000000600082015250565b6000612f5c6019836120ce565b9150612f6782612f26565b602082019050919050565b60006020820190508181036000830152612f8b81612f4f565b9050919050565b7f4552433732313a207472616e7366657220746f206e6f6e20455243373231526560008201527f63656976657220696d706c656d656e7465720000000000000000000000000000602082015250565b6000612fee6032836120ce565b9150612ff982612f92565b604082019050919050565b6000602082019050818103600083015261301d81612fe1565b9050919050565b7f4e487b7100000000000000000000000000000000000000000000000000000000600052601160045260246000fd5b600061305e82612175565b915061306983612175565b925082820390508181111561308157613080613024565b5b92915050565b600061309282612175565b915061309d83612175565b92508282019050808211156130b5576130b4613024565b5b92915050565b6000815190506130ca8161234a565b92915050565b6000602082840312156130e6576130e5611ffe565b5b60006130f4848285016130bb565b91505092915050565b7f5361666545524332303a204552433230206f7065726174696f6e20646964206e60008201527f6f74207375636365656400000000000000000000000000000000000000000000602082015250565b6000613159602a836120ce565b9150613164826130fd565b604082019050919050565b600060208201905081810360008301526131888161314c565b9050919050565b600081519050919050565b600082825260208201905092915050565b60006131b68261318f565b6131c0818561319a565b93506131d08185602086016120df565b6131d981612109565b840191505092915050565b60006080820190506131f9600083018761220a565b613206602083018661220a565b6132136040830185612320565b818103606083015261322581846131ab565b905095945050505050565b60008151905061323f81612034565b92915050565b60006020828403121561325b5761325a611ffe565b5b600061326984828501613230565b91505092915050565b7f4552433732313a206d696e7420746f20746865207a65726f2061646472657373600082015250565b60006132a86020836120ce565b91506132b382613272565b602082019050919050565b600060208201905081810360008301526132d78161329b565b9050919050565b7f4552433732313a20746f6b656e20616c7265616479206d696e74656400000000600082015250565b6000613314601c836120ce565b915061331f826132de565b602082019050919050565b6000602082019050818103600083015261334381613307565b9050919050565b7f416464726573733a20696e73756666696369656e742062616c616e636520666f60008201527f722063616c6c0000000000000000000000000000000000000000000000000000602082015250565b60006133a66026836120ce565b91506133b18261334a565b604082019050919050565b600060208201905081810360008301526133d581613399565b9050919050565b600081905092915050565b60006133f28261318f565b6133fc81856133dc565b935061340c8185602086016120df565b80840191505092915050565b600061342482846133e7565b915081905092915050565b7f416464726573733a2063616c6c20746f206e6f6e2d636f6e7472616374000000600082015250565b6000613465601d836120ce565b91506134708261342f565b602082019050919050565b6000602082019050818103600083015261349481613458565b905091905056fea2646970667358221220d20952ac2318451141bad25c48f40d7f365b95d830122358aef69fa7dd9308c064736f6c63430008110033",
    "linkReferences": {},
    "deployedLinkReferences": {}
}